{
  "address": "0x5FbDB2315678afecb367f032d93F642f64180aa3",
  "abi": [
    {
      "inputs": [],
      "stateMutability": "nonpayable",
      "type": "constructor"
    },
    {
      "inputs": [],
      "name": "ReputationFactory__DuplicateServiceProviderName",
      "type": "error"
    },
    {
      "inputs": [],
      "name": "ReputationFactory__ServiceProviderDoesNotExist",
      "type": "error"
    },
    {
      "inputs": [
        {
          "internalType": "string",
          "name": "name",
          "type": "string"
        }
      ],
      "name": "createServiceProvider",
      "outputs": [],
      "stateMutability": "nonpayable",
      "type": "function"
    },
    {
      "inputs": [
        {
          "internalType": "string",
          "name": "name",
          "type": "string"
        },
        {
          "internalType": "uint256",
          "name": "tokenId",
          "type": "uint256"
        },
        {
          "internalType": "string",
          "name": "reviewText",
          "type": "string"
        }
      ],
      "name": "createServiceProviderReview",
      "outputs": [],
      "stateMutability": "nonpayable",
      "type": "function"
    },
    {
      "inputs": [
        {
          "internalType": "string",
          "name": "name",
          "type": "string"
        }
      ],
      "name": "createServiceProviderUserToken",
      "outputs": [],
      "stateMutability": "nonpayable",
      "type": "function"
    },
    {
      "inputs": [
        {
          "internalType": "string",
          "name": "name",
          "type": "string"
        }
      ],
      "name": "getServiceProvider",
      "outputs": [
        {
          "internalType": "contract ServiceProvider",
          "name": "",
          "type": "address"
        }
      ],
      "stateMutability": "view",
      "type": "function"
    },
    {
      "inputs": [
        {
          "internalType": "string",
          "name": "name",
          "type": "string"
        }
      ],
      "name": "getServiceProviderAddress",
      "outputs": [
        {
          "internalType": "address",
          "name": "",
          "type": "address"
        }
      ],
      "stateMutability": "view",
      "type": "function"
    },
    {
      "inputs": [
        {
          "internalType": "string",
          "name": "name",
          "type": "string"
        }
      ],
      "name": "getServiceProviderReview",
      "outputs": [
        {
          "internalType": "string[]",
          "name": "",
          "type": "string[]"
        }
      ],
      "stateMutability": "view",
      "type": "function"
    },
    {
      "inputs": [
        {
          "internalType": "string",
          "name": "name",
          "type": "string"
        }
      ],
      "name": "getServiceProviderTokenId",
      "outputs": [
        {
          "internalType": "uint256",
          "name": "",
          "type": "uint256"
        }
      ],
      "stateMutability": "view",
      "type": "function"
    }
  ],
  "transactionHash": "0xe7e3a80d55cf6fe1aee000156b8725407e641e9cf026c868593c6ee0ec15396b",
  "args": [],
  "numDeployments": 1,
  "solcInputHash": "955a5101e7997514de47bc7474d22849",
  "bytecode": "0x608060405234801561001057600080fd5b5033600160006101000a81548173ffffffffffffffffffffffffffffffffffffffff021916908373ffffffffffffffffffffffffffffffffffffffff160217905550613b60806100616000396000f3fe60806040523480156200001157600080fd5b5060043610620000885760003560e01c80637fe6ab5a11620000635780637fe6ab5a1462000119578063adde886f1462000139578063c97588e51462000159578063ea0104e2146200018f5762000088565b80630ce8b8e6146200008d5780631d351eff14620000ad5780631ebc077214620000e3575b600080fd5b620000ab6004803603810190620000a59190620007a9565b620001c5565b005b620000cb6004803603810190620000c5919062000843565b6200024b565b604051620000da9190620008a5565b60405180910390f35b620001016004803603810190620000fb919062000843565b620002d5565b6040516200011091906200094d565b60405180910390f35b62000137600480360381019062000131919062000843565b62000355565b005b62000157600480360381019062000151919062000843565b6200049c565b005b62000177600480360381019062000171919062000843565b62000511565b6040516200018691906200098f565b60405180910390f35b620001ad6004803603810190620001a7919062000843565b6200055a565b604051620001bc919062000b05565b60405180910390f35b6000620001d284620002d5565b90508073ffffffffffffffffffffffffffffffffffffffff166385b3a7db84846040518363ffffffff1660e01b81526004016200021192919062000b7b565b600060405180830381600087803b1580156200022c57600080fd5b505af115801562000241573d6000803e3d6000fd5b5050505050505050565b6000806200025983620002d5565b90508073ffffffffffffffffffffffffffffffffffffffff1663010a38f56040518163ffffffff1660e01b8152600401602060405180830381865afa158015620002a7573d6000803e3d6000fd5b505050506040513d601f19601f82011682018060405250810190620002cd919062000bc6565b915050919050565b600080620002e38362000511565b9050600073ffffffffffffffffffffffffffffffffffffffff168173ffffffffffffffffffffffffffffffffffffffff16036200034c576040517fb2de20fe00000000000000000000000000000000000000000000000000000000815260040160405180910390fd5b80915050919050565b600073ffffffffffffffffffffffffffffffffffffffff166000826040516200037f919062000c3a565b908152602001604051809103902060009054906101000a900473ffffffffffffffffffffffffffffffffffffffff1673ffffffffffffffffffffffffffffffffffffffff1614620003fc576040517f6efbfaf100000000000000000000000000000000000000000000000000000000815260040160405180910390fd5b6000306040516200040d90620005ea565b6200041991906200098f565b604051809103906000f08015801562000436573d6000803e3d6000fd5b509050806000836040516200044c919062000c3a565b908152602001604051809103902060006101000a81548173ffffffffffffffffffffffffffffffffffffffff021916908373ffffffffffffffffffffffffffffffffffffffff1602179055505050565b6000620004a982620002d5565b90508073ffffffffffffffffffffffffffffffffffffffff1663d2ed0aac6040518163ffffffff1660e01b8152600401600060405180830381600087803b158015620004f457600080fd5b505af115801562000509573d6000803e3d6000fd5b505050505050565b6000808260405162000524919062000c3a565b908152602001604051809103902060009054906101000a900473ffffffffffffffffffffffffffffffffffffffff169050919050565b606060006200056983620002d5565b90508073ffffffffffffffffffffffffffffffffffffffff1663a73a4aaf6040518163ffffffff1660e01b8152600401600060405180830381865afa158015620005b7573d6000803e3d6000fd5b505050506040513d6000823e3d601f19601f82011682018060405250810190620005e2919062000dcd565b915050919050565b612d0c8062000e1f83390190565b6000604051905090565b600080fd5b600080fd5b600080fd5b600080fd5b6000601f19601f8301169050919050565b7f4e487b7100000000000000000000000000000000000000000000000000000000600052604160045260246000fd5b620006618262000616565b810181811067ffffffffffffffff8211171562000683576200068262000627565b5b80604052505050565b600062000698620005f8565b9050620006a6828262000656565b919050565b600067ffffffffffffffff821115620006c957620006c862000627565b5b620006d48262000616565b9050602081019050919050565b82818337600083830152505050565b6000620007076200070184620006ab565b6200068c565b90508281526020810184848401111562000726576200072562000611565b5b62000733848285620006e1565b509392505050565b600082601f8301126200075357620007526200060c565b5b813562000765848260208601620006f0565b91505092915050565b6000819050919050565b62000783816200076e565b81146200078f57600080fd5b50565b600081359050620007a38162000778565b92915050565b600080600060608486031215620007c557620007c462000602565b5b600084013567ffffffffffffffff811115620007e657620007e562000607565b5b620007f4868287016200073b565b9350506020620008078682870162000792565b925050604084013567ffffffffffffffff8111156200082b576200082a62000607565b5b62000839868287016200073b565b9150509250925092565b6000602082840312156200085c576200085b62000602565b5b600082013567ffffffffffffffff8111156200087d576200087c62000607565b5b6200088b848285016200073b565b91505092915050565b6200089f816200076e565b82525050565b6000602082019050620008bc600083018462000894565b92915050565b600073ffffffffffffffffffffffffffffffffffffffff82169050919050565b6000819050919050565b60006200090d620009076200090184620008c2565b620008e2565b620008c2565b9050919050565b60006200092182620008ec565b9050919050565b6000620009358262000914565b9050919050565b620009478162000928565b82525050565b60006020820190506200096460008301846200093c565b92915050565b60006200097782620008c2565b9050919050565b62000989816200096a565b82525050565b6000602082019050620009a660008301846200097e565b92915050565b600081519050919050565b600082825260208201905092915050565b6000819050602082019050919050565b600081519050919050565b600082825260208201905092915050565b60005b8381101562000a14578082015181840152602081019050620009f7565b60008484015250505050565b600062000a2d82620009d8565b62000a398185620009e3565b935062000a4b818560208601620009f4565b62000a568162000616565b840191505092915050565b600062000a6f838362000a20565b905092915050565b6000602082019050919050565b600062000a9182620009ac565b62000a9d8185620009b7565b93508360208202850162000ab185620009c8565b8060005b8581101562000af3578484038952815162000ad1858262000a61565b945062000ade8362000a77565b925060208a0199505060018101905062000ab5565b50829750879550505050505092915050565b6000602082019050818103600083015262000b21818462000a84565b905092915050565b600082825260208201905092915050565b600062000b4782620009d8565b62000b53818562000b29565b935062000b65818560208601620009f4565b62000b708162000616565b840191505092915050565b600060408201905062000b92600083018562000894565b818103602083015262000ba6818462000b3a565b90509392505050565b60008151905062000bc08162000778565b92915050565b60006020828403121562000bdf5762000bde62000602565b5b600062000bef8482850162000baf565b91505092915050565b600081905092915050565b600062000c1082620009d8565b62000c1c818562000bf8565b935062000c2e818560208601620009f4565b80840191505092915050565b600062000c48828462000c03565b915081905092915050565b600067ffffffffffffffff82111562000c715762000c7062000627565b5b602082029050602081019050919050565b600080fd5b600062000c9e62000c9884620006ab565b6200068c565b90508281526020810184848401111562000cbd5762000cbc62000611565b5b62000cca848285620009f4565b509392505050565b600082601f83011262000cea5762000ce96200060c565b5b815162000cfc84826020860162000c87565b91505092915050565b600062000d1c62000d168462000c53565b6200068c565b9050808382526020820190506020840283018581111562000d425762000d4162000c82565b5b835b8181101562000d9057805167ffffffffffffffff81111562000d6b5762000d6a6200060c565b5b80860162000d7a898262000cd2565b8552602085019450505060208101905062000d44565b5050509392505050565b600082601f83011262000db25762000db16200060c565b5b815162000dc484826020860162000d05565b91505092915050565b60006020828403121562000de65762000de562000602565b5b600082015167ffffffffffffffff81111562000e075762000e0662000607565b5b62000e158482850162000d9a565b9150509291505056fe608060405260006004553480156200001657600080fd5b5060405162002d0c38038062002d0c83398181016040528101906200003c9190620001b7565b33600160006101000a81548173ffffffffffffffffffffffffffffffffffffffff021916908373ffffffffffffffffffffffffffffffffffffffff16021790555080600260006101000a81548173ffffffffffffffffffffffffffffffffffffffff021916908373ffffffffffffffffffffffffffffffffffffffff1602179055506064604051620000ce906200013f565b620000da919062000240565b604051809103906000f080158015620000f7573d6000803e3d6000fd5b50600360006101000a81548173ffffffffffffffffffffffffffffffffffffffff021916908373ffffffffffffffffffffffffffffffffffffffff160217905550506200025d565b611e1c8062000ef083390190565b600080fd5b600073ffffffffffffffffffffffffffffffffffffffff82169050919050565b60006200017f8262000152565b9050919050565b620001918162000172565b81146200019d57600080fd5b50565b600081519050620001b18162000186565b92915050565b600060208284031215620001d057620001cf6200014d565b5b6000620001e084828501620001a0565b91505092915050565b6000819050919050565b6000819050919050565b6000819050919050565b600062000228620002226200021c84620001e9565b620001fd565b620001f3565b9050919050565b6200023a8162000207565b82525050565b60006020820190506200025760008301846200022f565b92915050565b610c83806200026d6000396000f3fe608060405234801561001057600080fd5b50600436106100575760003560e01c8063010a38f51461005c5780635936b08f1461007a57806385b3a7db14610098578063a73a4aaf146100b4578063d2ed0aac146100d2575b600080fd5b6100646100dc565b604051610071919061045d565b60405180910390f35b6100826100e6565b60405161008f9190610508565b60405180910390f35b6100b260048036038101906100ad919061069f565b6100eb565b005b6100bc6101ae565b6040516100c99190610807565b60405180910390f35b6100da610287565b005b6000600454905090565b606090565b600015156005600084815260200190815260200160002060009054906101000a900460ff16151503610149576040517f34c07b6800000000000000000000000000000000000000000000000000000000815260040160405180910390fd5b60006005600084815260200190815260200160002060006101000a81548160ff0219169083151502179055506000819080600181540180825580915050600190039060005260206000200160009091909190915090816101a99190610a35565b505050565b60606000805480602002602001604051908101604052809291908181526020016000905b8282101561027e5783829060005260206000200180546101f190610858565b80601f016020809104026020016040519081016040528092919081815260200182805461021d90610858565b801561026a5780601f1061023f5761010080835404028352916020019161026a565b820191906000526020600020905b81548152906001019060200180831161024d57829003601f168201915b5050505050815260200190600101906101d2565b50505050905090565b600360009054906101000a900473ffffffffffffffffffffffffffffffffffffffff1673ffffffffffffffffffffffffffffffffffffffff1663a9059cbb600260009054906101000a900473ffffffffffffffffffffffffffffffffffffffff16600a6040518363ffffffff1660e01b8152600401610307929190610b48565b6020604051808303816000875af192505050801561034357506040513d601f19601f820116820180604052508101906103409190610ba9565b60015b6103ab573d8060008114610373576040519150601f19603f3d011682016040523d82523d6000602084013e610378565b606091505b506040517f91d0973300000000000000000000000000000000000000000000000000000000815260040160405180910390fd5b600160056000600454815260200190815260200160002060006101000a81548160ff0219169083151502179055503373ffffffffffffffffffffffffffffffffffffffff167f30385c845b448a36257a6a1716e6ad2e1bc2cbe333cde1e69fe849ad6511adfe600454604051610421919061045d565b60405180910390a26004600081548092919061043c90610c05565b919050555050565b6000819050919050565b61045781610444565b82525050565b6000602082019050610472600083018461044e565b92915050565b600081519050919050565b600082825260208201905092915050565b60005b838110156104b2578082015181840152602081019050610497565b60008484015250505050565b6000601f19601f8301169050919050565b60006104da82610478565b6104e48185610483565b93506104f4818560208601610494565b6104fd816104be565b840191505092915050565b6000602082019050818103600083015261052281846104cf565b905092915050565b6000604051905090565b600080fd5b600080fd5b61054781610444565b811461055257600080fd5b50565b6000813590506105648161053e565b92915050565b600080fd5b600080fd5b7f4e487b7100000000000000000000000000000000000000000000000000000000600052604160045260246000fd5b6105ac826104be565b810181811067ffffffffffffffff821117156105cb576105ca610574565b5b80604052505050565b60006105de61052a565b90506105ea82826105a3565b919050565b600067ffffffffffffffff82111561060a57610609610574565b5b610613826104be565b9050602081019050919050565b82818337600083830152505050565b600061064261063d846105ef565b6105d4565b90508281526020810184848401111561065e5761065d61056f565b5b610669848285610620565b509392505050565b600082601f8301126106865761068561056a565b5b813561069684826020860161062f565b91505092915050565b600080604083850312156106b6576106b5610534565b5b60006106c485828601610555565b925050602083013567ffffffffffffffff8111156106e5576106e4610539565b5b6106f185828601610671565b9150509250929050565b600081519050919050565b600082825260208201905092915050565b6000819050602082019050919050565b600082825260208201905092915050565b600061074382610478565b61074d8185610727565b935061075d818560208601610494565b610766816104be565b840191505092915050565b600061077d8383610738565b905092915050565b6000602082019050919050565b600061079d826106fb565b6107a78185610706565b9350836020820285016107b985610717565b8060005b858110156107f557848403895281516107d68582610771565b94506107e183610785565b925060208a019950506001810190506107bd565b50829750879550505050505092915050565b600060208201905081810360008301526108218184610792565b905092915050565b7f4e487b7100000000000000000000000000000000000000000000000000000000600052602260045260246000fd5b6000600282049050600182168061087057607f821691505b60208210810361088357610882610829565b5b50919050565b60008190508160005260206000209050919050565b60006020601f8301049050919050565b600082821b905092915050565b6000600883026108eb7fffffffffffffffffffffffffffffffffffffffffffffffffffffffffffffffff826108ae565b6108f586836108ae565b95508019841693508086168417925050509392505050565b6000819050919050565b600061093261092d61092884610444565b61090d565b610444565b9050919050565b6000819050919050565b61094c83610917565b61096061095882610939565b8484546108bb565b825550505050565b600090565b610975610968565b610980818484610943565b505050565b5b818110156109a45761099960008261096d565b600181019050610986565b5050565b601f8211156109e9576109ba81610889565b6109c38461089e565b810160208510156109d2578190505b6109e66109de8561089e565b830182610985565b50505b505050565b600082821c905092915050565b6000610a0c600019846008026109ee565b1980831691505092915050565b6000610a2583836109fb565b9150826002028217905092915050565b610a3e82610478565b67ffffffffffffffff811115610a5757610a56610574565b5b610a618254610858565b610a6c8282856109a8565b600060209050601f831160018114610a9f5760008415610a8d578287015190505b610a978582610a19565b865550610aff565b601f198416610aad86610889565b60005b82811015610ad557848901518255600182019150602085019450602081019050610ab0565b86831015610af25784890151610aee601f8916826109fb565b8355505b6001600288020188555050505b505050505050565b600073ffffffffffffffffffffffffffffffffffffffff82169050919050565b6000610b3282610b07565b9050919050565b610b4281610b27565b82525050565b6000604082019050610b5d6000830185610b39565b610b6a602083018461044e565b9392505050565b60008115159050919050565b610b8681610b71565b8114610b9157600080fd5b50565b600081519050610ba381610b7d565b92915050565b600060208284031215610bbf57610bbe610534565b5b6000610bcd84828501610b94565b91505092915050565b7f4e487b7100000000000000000000000000000000000000000000000000000000600052601160045260246000fd5b6000610c1082610444565b91507fffffffffffffffffffffffffffffffffffffffffffffffffffffffffffffffff8203610c4257610c41610bd6565b5b60018201905091905056fea2646970667358221220feb42ec7990656cb996cae22bca3239baf13ff9f3d217dc01f247cfab35871f564736f6c6343000813003360806040523480156200001157600080fd5b5060405162001e1c38038062001e1c833981810160405281019062000037919062000387565b6040518060400160405280600f81526020017f5365727669636550726f766964657200000000000000000000000000000000008152506040518060400160405280600281526020017f53500000000000000000000000000000000000000000000000000000000000008152508160039081620000b4919062000629565b508060049081620000c6919062000629565b505050620000e9620000dd6200010260201b60201c565b6200010a60201b60201c565b620000fb3382620001d060201b60201c565b506200082b565b600033905090565b6000600560009054906101000a900473ffffffffffffffffffffffffffffffffffffffff16905081600560006101000a81548173ffffffffffffffffffffffffffffffffffffffff021916908373ffffffffffffffffffffffffffffffffffffffff1602179055508173ffffffffffffffffffffffffffffffffffffffff168173ffffffffffffffffffffffffffffffffffffffff167f8be0079c531659141344cd1fd0a4f28419497f9722a3daafe3b4186f6b6457e060405160405180910390a35050565b600073ffffffffffffffffffffffffffffffffffffffff168273ffffffffffffffffffffffffffffffffffffffff160362000242576040517f08c379a0000000000000000000000000000000000000000000000000000000008152600401620002399062000771565b60405180910390fd5b62000256600083836200033d60201b60201c565b80600260008282546200026a9190620007c2565b92505081905550806000808473ffffffffffffffffffffffffffffffffffffffff1673ffffffffffffffffffffffffffffffffffffffff168152602001908152602001600020600082825401925050819055508173ffffffffffffffffffffffffffffffffffffffff16600073ffffffffffffffffffffffffffffffffffffffff167fddf252ad1be2c89b69c2b068fc378daa952ba7f163c4a11628f55a4df523b3ef836040516200031d91906200080e565b60405180910390a362000339600083836200034260201b60201c565b5050565b505050565b505050565b600080fd5b6000819050919050565b62000361816200034c565b81146200036d57600080fd5b50565b600081519050620003818162000356565b92915050565b600060208284031215620003a0576200039f62000347565b5b6000620003b08482850162000370565b91505092915050565b600081519050919050565b7f4e487b7100000000000000000000000000000000000000000000000000000000600052604160045260246000fd5b7f4e487b7100000000000000000000000000000000000000000000000000000000600052602260045260246000fd5b600060028204905060018216806200043b57607f821691505b602082108103620004515762000450620003f3565b5b50919050565b60008190508160005260206000209050919050565b60006020601f8301049050919050565b600082821b905092915050565b600060088302620004bb7fffffffffffffffffffffffffffffffffffffffffffffffffffffffffffffffff826200047c565b620004c786836200047c565b95508019841693508086168417925050509392505050565b6000819050919050565b60006200050a62000504620004fe846200034c565b620004df565b6200034c565b9050919050565b6000819050919050565b6200052683620004e9565b6200053e620005358262000511565b84845462000489565b825550505050565b600090565b6200055562000546565b620005628184846200051b565b505050565b5b818110156200058a576200057e6000826200054b565b60018101905062000568565b5050565b601f821115620005d957620005a38162000457565b620005ae846200046c565b81016020851015620005be578190505b620005d6620005cd856200046c565b83018262000567565b50505b505050565b600082821c905092915050565b6000620005fe60001984600802620005de565b1980831691505092915050565b6000620006198383620005eb565b9150826002028217905092915050565b6200063482620003b9565b67ffffffffffffffff81111562000650576200064f620003c4565b5b6200065c825462000422565b620006698282856200058e565b600060209050601f831160018114620006a157600084156200068c578287015190505b6200069885826200060b565b86555062000708565b601f198416620006b18662000457565b60005b82811015620006db57848901518255600182019150602085019450602081019050620006b4565b86831015620006fb5784890151620006f7601f891682620005eb565b8355505b6001600288020188555050505b505050505050565b600082825260208201905092915050565b7f45524332303a206d696e7420746f20746865207a65726f206164647265737300600082015250565b600062000759601f8362000710565b9150620007668262000721565b602082019050919050565b600060208201905081810360008301526200078c816200074a565b9050919050565b7f4e487b7100000000000000000000000000000000000000000000000000000000600052601160045260246000fd5b6000620007cf826200034c565b9150620007dc836200034c565b9250828201905080821115620007f757620007f662000793565b5b92915050565b62000808816200034c565b82525050565b6000602082019050620008256000830184620007fd565b92915050565b6115e1806200083b6000396000f3fe608060405234801561001057600080fd5b50600436106100ea5760003560e01c8063715018a61161008c578063a457c2d711610066578063a457c2d71461024f578063a9059cbb1461027f578063dd62ed3e146102af578063f2fde38b146102df576100ea565b8063715018a6146102095780638da5cb5b1461021357806395d89b4114610231576100ea565b806323b872dd116100c857806323b872dd1461015b578063313ce5671461018b57806339509351146101a957806370a08231146101d9576100ea565b806306fdde03146100ef578063095ea7b31461010d57806318160ddd1461013d575b600080fd5b6100f76102fb565b6040516101049190610d96565b60405180910390f35b61012760048036038101906101229190610e51565b61038d565b6040516101349190610eac565b60405180910390f35b6101456103b0565b6040516101529190610ed6565b60405180910390f35b61017560048036038101906101709190610ef1565b6103ba565b6040516101829190610eac565b60405180910390f35b6101936103e9565b6040516101a09190610f60565b60405180910390f35b6101c360048036038101906101be9190610e51565b6103f2565b6040516101d09190610eac565b60405180910390f35b6101f360048036038101906101ee9190610f7b565b610429565b6040516102009190610ed6565b60405180910390f35b610211610471565b005b61021b610485565b6040516102289190610fb7565b60405180910390f35b6102396104af565b6040516102469190610d96565b60405180910390f35b61026960048036038101906102649190610e51565b610541565b6040516102769190610eac565b60405180910390f35b61029960048036038101906102949190610e51565b6105b8565b6040516102a69190610eac565b60405180910390f35b6102c960048036038101906102c49190610fd2565b6105db565b6040516102d69190610ed6565b60405180910390f35b6102f960048036038101906102f49190610f7b565b610662565b005b60606003805461030a90611041565b80601f016020809104026020016040519081016040528092919081815260200182805461033690611041565b80156103835780601f1061035857610100808354040283529160200191610383565b820191906000526020600020905b81548152906001019060200180831161036657829003601f168201915b5050505050905090565b6000806103986106e5565b90506103a58185856106ed565b600191505092915050565b6000600254905090565b6000806103c56106e5565b90506103d28582856108b6565b6103dd858585610942565b60019150509392505050565b60006012905090565b6000806103fd6106e5565b905061041e81858561040f85896105db565b61041991906110a1565b6106ed565b600191505092915050565b60008060008373ffffffffffffffffffffffffffffffffffffffff1673ffffffffffffffffffffffffffffffffffffffff168152602001908152602001600020549050919050565b610479610bb8565b6104836000610c36565b565b6000600560009054906101000a900473ffffffffffffffffffffffffffffffffffffffff16905090565b6060600480546104be90611041565b80601f01602080910402602001604051908101604052809291908181526020018280546104ea90611041565b80156105375780601f1061050c57610100808354040283529160200191610537565b820191906000526020600020905b81548152906001019060200180831161051a57829003601f168201915b5050505050905090565b60008061054c6106e5565b9050600061055a82866105db565b90508381101561059f576040517f08c379a000000000000000000000000000000000000000000000000000000000815260040161059690611147565b60405180910390fd5b6105ac82868684036106ed565b60019250505092915050565b6000806105c36106e5565b90506105d0818585610942565b600191505092915050565b6000600160008473ffffffffffffffffffffffffffffffffffffffff1673ffffffffffffffffffffffffffffffffffffffff16815260200190815260200160002060008373ffffffffffffffffffffffffffffffffffffffff1673ffffffffffffffffffffffffffffffffffffffff16815260200190815260200160002054905092915050565b61066a610bb8565b600073ffffffffffffffffffffffffffffffffffffffff168173ffffffffffffffffffffffffffffffffffffffff16036106d9576040517f08c379a00000000000000000000000000000000000000000000000000000000081526004016106d0906111d9565b60405180910390fd5b6106e281610c36565b50565b600033905090565b600073ffffffffffffffffffffffffffffffffffffffff168373ffffffffffffffffffffffffffffffffffffffff160361075c576040517f08c379a00000000000000000000000000000000000000000000000000000000081526004016107539061126b565b60405180910390fd5b600073ffffffffffffffffffffffffffffffffffffffff168273ffffffffffffffffffffffffffffffffffffffff16036107cb576040517f08c379a00000000000000000000000000000000000000000000000000000000081526004016107c2906112fd565b60405180910390fd5b80600160008573ffffffffffffffffffffffffffffffffffffffff1673ffffffffffffffffffffffffffffffffffffffff16815260200190815260200160002060008473ffffffffffffffffffffffffffffffffffffffff1673ffffffffffffffffffffffffffffffffffffffff168152602001908152602001600020819055508173ffffffffffffffffffffffffffffffffffffffff168373ffffffffffffffffffffffffffffffffffffffff167f8c5be1e5ebec7d5bd14f71427d1e84f3dd0314c0f7b2291e5b200ac8c7c3b925836040516108a99190610ed6565b60405180910390a3505050565b60006108c284846105db565b90507fffffffffffffffffffffffffffffffffffffffffffffffffffffffffffffffff811461093c578181101561092e576040517f08c379a000000000000000000000000000000000000000000000000000000000815260040161092590611369565b60405180910390fd5b61093b84848484036106ed565b5b50505050565b600073ffffffffffffffffffffffffffffffffffffffff168373ffffffffffffffffffffffffffffffffffffffff16036109b1576040517f08c379a00000000000000000000000000000000000000000000000000000000081526004016109a8906113fb565b60405180910390fd5b600073ffffffffffffffffffffffffffffffffffffffff168273ffffffffffffffffffffffffffffffffffffffff1603610a20576040517f08c379a0000000000000000000000000000000000000000000000000000000008152600401610a179061148d565b60405180910390fd5b610a2b838383610cfc565b60008060008573ffffffffffffffffffffffffffffffffffffffff1673ffffffffffffffffffffffffffffffffffffffff16815260200190815260200160002054905081811015610ab1576040517f08c379a0000000000000000000000000000000000000000000000000000000008152600401610aa89061151f565b60405180910390fd5b8181036000808673ffffffffffffffffffffffffffffffffffffffff1673ffffffffffffffffffffffffffffffffffffffff16815260200190815260200160002081905550816000808573ffffffffffffffffffffffffffffffffffffffff1673ffffffffffffffffffffffffffffffffffffffff168152602001908152602001600020600082825401925050819055508273ffffffffffffffffffffffffffffffffffffffff168473ffffffffffffffffffffffffffffffffffffffff167fddf252ad1be2c89b69c2b068fc378daa952ba7f163c4a11628f55a4df523b3ef84604051610b9f9190610ed6565b60405180910390a3610bb2848484610d01565b50505050565b610bc06106e5565b73ffffffffffffffffffffffffffffffffffffffff16610bde610485565b73ffffffffffffffffffffffffffffffffffffffff1614610c34576040517f08c379a0000000000000000000000000000000000000000000000000000000008152600401610c2b9061158b565b60405180910390fd5b565b6000600560009054906101000a900473ffffffffffffffffffffffffffffffffffffffff16905081600560006101000a81548173ffffffffffffffffffffffffffffffffffffffff021916908373ffffffffffffffffffffffffffffffffffffffff1602179055508173ffffffffffffffffffffffffffffffffffffffff168173ffffffffffffffffffffffffffffffffffffffff167f8be0079c531659141344cd1fd0a4f28419497f9722a3daafe3b4186f6b6457e060405160405180910390a35050565b505050565b505050565b600081519050919050565b600082825260208201905092915050565b60005b83811015610d40578082015181840152602081019050610d25565b60008484015250505050565b6000601f19601f8301169050919050565b6000610d6882610d06565b610d728185610d11565b9350610d82818560208601610d22565b610d8b81610d4c565b840191505092915050565b60006020820190508181036000830152610db08184610d5d565b905092915050565b600080fd5b600073ffffffffffffffffffffffffffffffffffffffff82169050919050565b6000610de882610dbd565b9050919050565b610df881610ddd565b8114610e0357600080fd5b50565b600081359050610e1581610def565b92915050565b6000819050919050565b610e2e81610e1b565b8114610e3957600080fd5b50565b600081359050610e4b81610e25565b92915050565b60008060408385031215610e6857610e67610db8565b5b6000610e7685828601610e06565b9250506020610e8785828601610e3c565b9150509250929050565b60008115159050919050565b610ea681610e91565b82525050565b6000602082019050610ec16000830184610e9d565b92915050565b610ed081610e1b565b82525050565b6000602082019050610eeb6000830184610ec7565b92915050565b600080600060608486031215610f0a57610f09610db8565b5b6000610f1886828701610e06565b9350506020610f2986828701610e06565b9250506040610f3a86828701610e3c565b9150509250925092565b600060ff82169050919050565b610f5a81610f44565b82525050565b6000602082019050610f756000830184610f51565b92915050565b600060208284031215610f9157610f90610db8565b5b6000610f9f84828501610e06565b91505092915050565b610fb181610ddd565b82525050565b6000602082019050610fcc6000830184610fa8565b92915050565b60008060408385031215610fe957610fe8610db8565b5b6000610ff785828601610e06565b925050602061100885828601610e06565b9150509250929050565b7f4e487b7100000000000000000000000000000000000000000000000000000000600052602260045260246000fd5b6000600282049050600182168061105957607f821691505b60208210810361106c5761106b611012565b5b50919050565b7f4e487b7100000000000000000000000000000000000000000000000000000000600052601160045260246000fd5b60006110ac82610e1b565b91506110b783610e1b565b92508282019050808211156110cf576110ce611072565b5b92915050565b7f45524332303a2064656372656173656420616c6c6f77616e63652062656c6f7760008201527f207a65726f000000000000000000000000000000000000000000000000000000602082015250565b6000611131602583610d11565b915061113c826110d5565b604082019050919050565b6000602082019050818103600083015261116081611124565b9050919050565b7f4f776e61626c653a206e6577206f776e657220697320746865207a65726f206160008201527f6464726573730000000000000000000000000000000000000000000000000000602082015250565b60006111c3602683610d11565b91506111ce82611167565b604082019050919050565b600060208201905081810360008301526111f2816111b6565b9050919050565b7f45524332303a20617070726f76652066726f6d20746865207a65726f2061646460008201527f7265737300000000000000000000000000000000000000000000000000000000602082015250565b6000611255602483610d11565b9150611260826111f9565b604082019050919050565b6000602082019050818103600083015261128481611248565b9050919050565b7f45524332303a20617070726f766520746f20746865207a65726f20616464726560008201527f7373000000000000000000000000000000000000000000000000000000000000602082015250565b60006112e7602283610d11565b91506112f28261128b565b604082019050919050565b60006020820190508181036000830152611316816112da565b9050919050565b7f45524332303a20696e73756666696369656e7420616c6c6f77616e6365000000600082015250565b6000611353601d83610d11565b915061135e8261131d565b602082019050919050565b6000602082019050818103600083015261138281611346565b9050919050565b7f45524332303a207472616e736665722066726f6d20746865207a65726f20616460008201527f6472657373000000000000000000000000000000000000000000000000000000602082015250565b60006113e5602583610d11565b91506113f082611389565b604082019050919050565b60006020820190508181036000830152611414816113d8565b9050919050565b7f45524332303a207472616e7366657220746f20746865207a65726f206164647260008201527f6573730000000000000000000000000000000000000000000000000000000000602082015250565b6000611477602383610d11565b91506114828261141b565b604082019050919050565b600060208201905081810360008301526114a68161146a565b9050919050565b7f45524332303a207472616e7366657220616d6f756e742065786365656473206260008201527f616c616e63650000000000000000000000000000000000000000000000000000602082015250565b6000611509602683610d11565b9150611514826114ad565b604082019050919050565b60006020820190508181036000830152611538816114fc565b9050919050565b7f4f776e61626c653a2063616c6c6572206973206e6f7420746865206f776e6572600082015250565b6000611575602083610d11565b91506115808261153f565b602082019050919050565b600060208201905081810360008301526115a481611568565b905091905056fea2646970667358221220fd23eff2086d9de96152ab1820c3ea8d4599d8c4e65d4821ead0d76017537d2d64736f6c63430008130033a2646970667358221220f50b157a31735db2781fc2127a81ca8ef82c1b4dda403c0787ebac00937b7e7964736f6c63430008130033",
  "devdoc": {
    "kind": "dev",
    "methods": {},
    "version": 1
  },
  "userdoc": {
    "kind": "user",
    "methods": {},
    "version": 1
  },
  "storageLayout": {
    "storage": [
      {
        "astId": 837,
        "contract": "contracts/ReputationFactory.sol:ReputationFactory",
        "label": "registry",
        "offset": 0,
        "slot": "0",
        "type": "t_mapping(t_string_memory_ptr,t_address)"
      },
      {
        "astId": 839,
        "contract": "contracts/ReputationFactory.sol:ReputationFactory",
        "label": "owner",
        "offset": 0,
        "slot": "1",
        "type": "t_address"
      }
    ],
    "types": {
      "t_address": {
        "encoding": "inplace",
        "label": "address",
        "numberOfBytes": "20"
      },
      "t_mapping(t_string_memory_ptr,t_address)": {
        "encoding": "mapping",
        "key": "t_string_memory_ptr",
        "label": "mapping(string => address)",
        "numberOfBytes": "32",
        "value": "t_address"
      },
      "t_string_memory_ptr": {
        "encoding": "bytes",
        "label": "string",
        "numberOfBytes": "32"
      }
    }
  }
}