{
  "address": "0x6954839850FB8a5ee7fe6b628892A7f49c97ac27",
  "abi": [
    {
      "inputs": [
        {
          "internalType": "address",
          "name": "_factory",
          "type": "address"
        },
        {
          "internalType": "address",
          "name": "_owner",
          "type": "address"
        }
      ],
      "stateMutability": "nonpayable",
      "type": "constructor"
    },
    {
      "inputs": [],
      "name": "ServiceProvider__InvalidReviewToken",
      "type": "error"
    },
    {
      "inputs": [],
      "name": "ServiceProvider__NotEnoughTokenSP",
      "type": "error"
    },
    {
      "anonymous": false,
      "inputs": [
        {
          "indexed": true,
          "internalType": "address",
          "name": "minter",
          "type": "address"
        },
        {
          "indexed": false,
          "internalType": "string",
          "name": "status",
          "type": "string"
        }
      ],
      "name": "Minted",
      "type": "event"
    },
    {
      "inputs": [],
      "name": "createUserToken",
      "outputs": [],
      "stateMutability": "nonpayable",
      "type": "function"
    },
    {
      "inputs": [],
      "name": "getRating",
      "outputs": [
        {
          "internalType": "uint256",
          "name": "",
          "type": "uint256"
        }
      ],
      "stateMutability": "view",
      "type": "function"
    },
    {
      "inputs": [],
      "name": "getReview",
      "outputs": [
        {
          "internalType": "bytes32[]",
          "name": "",
          "type": "bytes32[]"
        }
      ],
      "stateMutability": "view",
      "type": "function"
    },
    {
      "inputs": [
        {
          "internalType": "bytes32",
          "name": "reviewText",
          "type": "bytes32"
        },
        {
          "internalType": "uint256",
          "name": "score",
          "type": "uint256"
        },
        {
          "internalType": "string",
          "name": "name",
          "type": "string"
        },
        {
          "internalType": "bytes32",
          "name": "token",
          "type": "bytes32"
        }
      ],
      "name": "sendReview",
      "outputs": [],
      "stateMutability": "nonpayable",
      "type": "function"
    }
  ],
  "transactionHash": "0x17364306484dd90aab65d244ec9213f6bf96ceefeb996f6b2b6943b765dc8437",
  "args": [
    "0xdDb9463e87f5002803B5C318dd5AA9bc9B9A4756",
    "0xdDb9463e87f5002803B5C318dd5AA9bc9B9A4756"
  ],
  "numDeployments": 6,
  "solcInputHash": "3f10bfe450108db6c376659a491b2087",
  "bytecode": "0x60806040523480156200001157600080fd5b5060405162002b6e38038062002b6e8339818101604052810190620000379190620001bb565b80600160006101000a81548173ffffffffffffffffffffffffffffffffffffffff021916908373ffffffffffffffffffffffffffffffffffffffff16021790555081600260006101000a81548173ffffffffffffffffffffffffffffffffffffffff021916908373ffffffffffffffffffffffffffffffffffffffff16021790555060006004819055506064604051620000d19062000143565b620000dd919062000259565b604051809103906000f080158015620000fa573d6000803e3d6000fd5b50600360006101000a81548173ffffffffffffffffffffffffffffffffffffffff021916908373ffffffffffffffffffffffffffffffffffffffff160217905550505062000276565b611e1c8062000d5283390190565b600080fd5b600073ffffffffffffffffffffffffffffffffffffffff82169050919050565b6000620001838262000156565b9050919050565b620001958162000176565b8114620001a157600080fd5b50565b600081519050620001b5816200018a565b92915050565b60008060408385031215620001d557620001d462000151565b5b6000620001e585828601620001a4565b9250506020620001f885828601620001a4565b9150509250929050565b6000819050919050565b6000819050919050565b6000819050919050565b6000620002416200023b620002358462000202565b62000216565b6200020c565b9050919050565b620002538162000220565b82525050565b600060208201905062000270600083018462000248565b92915050565b610acc80620002866000396000f3fe608060405234801561001057600080fd5b506004361061004c5760003560e01c806305cf8d5d1461005157806394061a081461006f578063a73a4aaf1461008b578063d2ed0aac146100a9575b600080fd5b6100596100b3565b6040516100669190610514565b60405180910390f35b610089600480360381019061008491906106eb565b6100bd565b005b6100936102a0565b6040516100a0919061082c565b60405180910390f35b6100b16102f8565b005b6000600454905090565b600160009054906101000a900473ffffffffffffffffffffffffffffffffffffffff1673ffffffffffffffffffffffffffffffffffffffff163373ffffffffffffffffffffffffffffffffffffffff161461014d576040517f08c379a0000000000000000000000000000000000000000000000000000000008152600401610144906108ab565b60405180910390fd5b600115156005600083815260200190815260200160002060009054906101000a900460ff161515036101ab576040517f39ce610e00000000000000000000000000000000000000000000000000000000815260040160405180910390fd5b60008490806001815401808255809150506001900390600052602060002001600090919091909150558260048190555060016005600083815260200190815260200160002060006101000a81548160ff0219169083151502179055506000600260009054906101000a900473ffffffffffffffffffffffffffffffffffffffff1690508073ffffffffffffffffffffffffffffffffffffffff16630fcf3c99846040518263ffffffff1660e01b81526004016102679190610939565b600060405180830381600087803b15801561028157600080fd5b505af1158015610295573d6000803e3d6000fd5b505050505050505050565b606060008054806020026020016040519081016040528092919081815260200182805480156102ee57602002820191906000526020600020905b8154815260200190600101908083116102da575b5050505050905090565b600160009054906101000a900473ffffffffffffffffffffffffffffffffffffffff1673ffffffffffffffffffffffffffffffffffffffff163373ffffffffffffffffffffffffffffffffffffffff1614610388576040517f08c379a000000000000000000000000000000000000000000000000000000000815260040161037f906108ab565b60405180910390fd5b600360009054906101000a900473ffffffffffffffffffffffffffffffffffffffff1673ffffffffffffffffffffffffffffffffffffffff1663a9059cbb600260009054906101000a900473ffffffffffffffffffffffffffffffffffffffff16600a6040518363ffffffff1660e01b815260040161040892919061099c565b6020604051808303816000875af192505050801561044457506040513d601f19601f8201168201806040525081019061044191906109fd565b60015b6104ac573d8060008114610474576040519150601f19603f3d011682016040523d82523d6000602084013e610479565b606091505b506040517f91d0973300000000000000000000000000000000000000000000000000000000815260040160405180910390fd5b3373ffffffffffffffffffffffffffffffffffffffff167f0c1b180fbb60448c5491c5ddc7c3a923854214b9ff70f90a7821333338971f926040516104f090610a76565b60405180910390a250565b6000819050919050565b61050e816104fb565b82525050565b60006020820190506105296000830184610505565b92915050565b6000604051905090565b600080fd5b600080fd5b6000819050919050565b61055681610543565b811461056157600080fd5b50565b6000813590506105738161054d565b92915050565b610582816104fb565b811461058d57600080fd5b50565b60008135905061059f81610579565b92915050565b600080fd5b600080fd5b6000601f19601f8301169050919050565b7f4e487b7100000000000000000000000000000000000000000000000000000000600052604160045260246000fd5b6105f8826105af565b810181811067ffffffffffffffff82111715610617576106166105c0565b5b80604052505050565b600061062a61052f565b905061063682826105ef565b919050565b600067ffffffffffffffff821115610656576106556105c0565b5b61065f826105af565b9050602081019050919050565b82818337600083830152505050565b600061068e6106898461063b565b610620565b9050828152602081018484840111156106aa576106a96105aa565b5b6106b584828561066c565b509392505050565b600082601f8301126106d2576106d16105a5565b5b81356106e284826020860161067b565b91505092915050565b6000806000806080858703121561070557610704610539565b5b600061071387828801610564565b945050602061072487828801610590565b935050604085013567ffffffffffffffff8111156107455761074461053e565b5b610751878288016106bd565b925050606061076287828801610564565b91505092959194509250565b600081519050919050565b600082825260208201905092915050565b6000819050602082019050919050565b6107a381610543565b82525050565b60006107b5838361079a565b60208301905092915050565b6000602082019050919050565b60006107d98261076e565b6107e38185610779565b93506107ee8361078a565b8060005b8381101561081f57815161080688826107a9565b9750610811836107c1565b9250506001810190506107f2565b5085935050505092915050565b6000602082019050818103600083015261084681846107ce565b905092915050565b600082825260208201905092915050565b7f53656e646572206973206e6f7420617574686f72697365640000000000000000600082015250565b600061089560188361084e565b91506108a08261085f565b602082019050919050565b600060208201905081810360008301526108c481610888565b9050919050565b600081519050919050565b60005b838110156108f45780820151818401526020810190506108d9565b60008484015250505050565b600061090b826108cb565b610915818561084e565b93506109258185602086016108d6565b61092e816105af565b840191505092915050565b600060208201905081810360008301526109538184610900565b905092915050565b600073ffffffffffffffffffffffffffffffffffffffff82169050919050565b60006109868261095b565b9050919050565b6109968161097b565b82525050565b60006040820190506109b1600083018561098d565b6109be6020830184610505565b9392505050565b60008115159050919050565b6109da816109c5565b81146109e557600080fd5b50565b6000815190506109f7816109d1565b92915050565b600060208284031215610a1357610a12610539565b5b6000610a21848285016109e8565b91505092915050565b7f7472616e736665725f7375636365737300000000000000000000000000000000600082015250565b6000610a6060108361084e565b9150610a6b82610a2a565b602082019050919050565b60006020820190508181036000830152610a8f81610a53565b905091905056fea2646970667358221220315cafcf90cb5f3dd7b5b981114676542a1f8b67cb603d636b9e2a4a98312b7d64736f6c6343000813003360806040523480156200001157600080fd5b5060405162001e1c38038062001e1c833981810160405281019062000037919062000387565b6040518060400160405280600f81526020017f5365727669636550726f766964657200000000000000000000000000000000008152506040518060400160405280600281526020017f53500000000000000000000000000000000000000000000000000000000000008152508160039081620000b4919062000629565b508060049081620000c6919062000629565b505050620000e9620000dd6200010260201b60201c565b6200010a60201b60201c565b620000fb3382620001d060201b60201c565b506200082b565b600033905090565b6000600560009054906101000a900473ffffffffffffffffffffffffffffffffffffffff16905081600560006101000a81548173ffffffffffffffffffffffffffffffffffffffff021916908373ffffffffffffffffffffffffffffffffffffffff1602179055508173ffffffffffffffffffffffffffffffffffffffff168173ffffffffffffffffffffffffffffffffffffffff167f8be0079c531659141344cd1fd0a4f28419497f9722a3daafe3b4186f6b6457e060405160405180910390a35050565b600073ffffffffffffffffffffffffffffffffffffffff168273ffffffffffffffffffffffffffffffffffffffff160362000242576040517f08c379a0000000000000000000000000000000000000000000000000000000008152600401620002399062000771565b60405180910390fd5b62000256600083836200033d60201b60201c565b80600260008282546200026a9190620007c2565b92505081905550806000808473ffffffffffffffffffffffffffffffffffffffff1673ffffffffffffffffffffffffffffffffffffffff168152602001908152602001600020600082825401925050819055508173ffffffffffffffffffffffffffffffffffffffff16600073ffffffffffffffffffffffffffffffffffffffff167fddf252ad1be2c89b69c2b068fc378daa952ba7f163c4a11628f55a4df523b3ef836040516200031d91906200080e565b60405180910390a362000339600083836200034260201b60201c565b5050565b505050565b505050565b600080fd5b6000819050919050565b62000361816200034c565b81146200036d57600080fd5b50565b600081519050620003818162000356565b92915050565b600060208284031215620003a0576200039f62000347565b5b6000620003b08482850162000370565b91505092915050565b600081519050919050565b7f4e487b7100000000000000000000000000000000000000000000000000000000600052604160045260246000fd5b7f4e487b7100000000000000000000000000000000000000000000000000000000600052602260045260246000fd5b600060028204905060018216806200043b57607f821691505b602082108103620004515762000450620003f3565b5b50919050565b60008190508160005260206000209050919050565b60006020601f8301049050919050565b600082821b905092915050565b600060088302620004bb7fffffffffffffffffffffffffffffffffffffffffffffffffffffffffffffffff826200047c565b620004c786836200047c565b95508019841693508086168417925050509392505050565b6000819050919050565b60006200050a62000504620004fe846200034c565b620004df565b6200034c565b9050919050565b6000819050919050565b6200052683620004e9565b6200053e620005358262000511565b84845462000489565b825550505050565b600090565b6200055562000546565b620005628184846200051b565b505050565b5b818110156200058a576200057e6000826200054b565b60018101905062000568565b5050565b601f821115620005d957620005a38162000457565b620005ae846200046c565b81016020851015620005be578190505b620005d6620005cd856200046c565b83018262000567565b50505b505050565b600082821c905092915050565b6000620005fe60001984600802620005de565b1980831691505092915050565b6000620006198383620005eb565b9150826002028217905092915050565b6200063482620003b9565b67ffffffffffffffff81111562000650576200064f620003c4565b5b6200065c825462000422565b620006698282856200058e565b600060209050601f831160018114620006a157600084156200068c578287015190505b6200069885826200060b565b86555062000708565b601f198416620006b18662000457565b60005b82811015620006db57848901518255600182019150602085019450602081019050620006b4565b86831015620006fb5784890151620006f7601f891682620005eb565b8355505b6001600288020188555050505b505050505050565b600082825260208201905092915050565b7f45524332303a206d696e7420746f20746865207a65726f206164647265737300600082015250565b600062000759601f8362000710565b9150620007668262000721565b602082019050919050565b600060208201905081810360008301526200078c816200074a565b9050919050565b7f4e487b7100000000000000000000000000000000000000000000000000000000600052601160045260246000fd5b6000620007cf826200034c565b9150620007dc836200034c565b9250828201905080821115620007f757620007f662000793565b5b92915050565b62000808816200034c565b82525050565b6000602082019050620008256000830184620007fd565b92915050565b6115e1806200083b6000396000f3fe608060405234801561001057600080fd5b50600436106100ea5760003560e01c8063715018a61161008c578063a457c2d711610066578063a457c2d71461024f578063a9059cbb1461027f578063dd62ed3e146102af578063f2fde38b146102df576100ea565b8063715018a6146102095780638da5cb5b1461021357806395d89b4114610231576100ea565b806323b872dd116100c857806323b872dd1461015b578063313ce5671461018b57806339509351146101a957806370a08231146101d9576100ea565b806306fdde03146100ef578063095ea7b31461010d57806318160ddd1461013d575b600080fd5b6100f76102fb565b6040516101049190610d96565b60405180910390f35b61012760048036038101906101229190610e51565b61038d565b6040516101349190610eac565b60405180910390f35b6101456103b0565b6040516101529190610ed6565b60405180910390f35b61017560048036038101906101709190610ef1565b6103ba565b6040516101829190610eac565b60405180910390f35b6101936103e9565b6040516101a09190610f60565b60405180910390f35b6101c360048036038101906101be9190610e51565b6103f2565b6040516101d09190610eac565b60405180910390f35b6101f360048036038101906101ee9190610f7b565b610429565b6040516102009190610ed6565b60405180910390f35b610211610471565b005b61021b610485565b6040516102289190610fb7565b60405180910390f35b6102396104af565b6040516102469190610d96565b60405180910390f35b61026960048036038101906102649190610e51565b610541565b6040516102769190610eac565b60405180910390f35b61029960048036038101906102949190610e51565b6105b8565b6040516102a69190610eac565b60405180910390f35b6102c960048036038101906102c49190610fd2565b6105db565b6040516102d69190610ed6565b60405180910390f35b6102f960048036038101906102f49190610f7b565b610662565b005b60606003805461030a90611041565b80601f016020809104026020016040519081016040528092919081815260200182805461033690611041565b80156103835780601f1061035857610100808354040283529160200191610383565b820191906000526020600020905b81548152906001019060200180831161036657829003601f168201915b5050505050905090565b6000806103986106e5565b90506103a58185856106ed565b600191505092915050565b6000600254905090565b6000806103c56106e5565b90506103d28582856108b6565b6103dd858585610942565b60019150509392505050565b60006012905090565b6000806103fd6106e5565b905061041e81858561040f85896105db565b61041991906110a1565b6106ed565b600191505092915050565b60008060008373ffffffffffffffffffffffffffffffffffffffff1673ffffffffffffffffffffffffffffffffffffffff168152602001908152602001600020549050919050565b610479610bb8565b6104836000610c36565b565b6000600560009054906101000a900473ffffffffffffffffffffffffffffffffffffffff16905090565b6060600480546104be90611041565b80601f01602080910402602001604051908101604052809291908181526020018280546104ea90611041565b80156105375780601f1061050c57610100808354040283529160200191610537565b820191906000526020600020905b81548152906001019060200180831161051a57829003601f168201915b5050505050905090565b60008061054c6106e5565b9050600061055a82866105db565b90508381101561059f576040517f08c379a000000000000000000000000000000000000000000000000000000000815260040161059690611147565b60405180910390fd5b6105ac82868684036106ed565b60019250505092915050565b6000806105c36106e5565b90506105d0818585610942565b600191505092915050565b6000600160008473ffffffffffffffffffffffffffffffffffffffff1673ffffffffffffffffffffffffffffffffffffffff16815260200190815260200160002060008373ffffffffffffffffffffffffffffffffffffffff1673ffffffffffffffffffffffffffffffffffffffff16815260200190815260200160002054905092915050565b61066a610bb8565b600073ffffffffffffffffffffffffffffffffffffffff168173ffffffffffffffffffffffffffffffffffffffff16036106d9576040517f08c379a00000000000000000000000000000000000000000000000000000000081526004016106d0906111d9565b60405180910390fd5b6106e281610c36565b50565b600033905090565b600073ffffffffffffffffffffffffffffffffffffffff168373ffffffffffffffffffffffffffffffffffffffff160361075c576040517f08c379a00000000000000000000000000000000000000000000000000000000081526004016107539061126b565b60405180910390fd5b600073ffffffffffffffffffffffffffffffffffffffff168273ffffffffffffffffffffffffffffffffffffffff16036107cb576040517f08c379a00000000000000000000000000000000000000000000000000000000081526004016107c2906112fd565b60405180910390fd5b80600160008573ffffffffffffffffffffffffffffffffffffffff1673ffffffffffffffffffffffffffffffffffffffff16815260200190815260200160002060008473ffffffffffffffffffffffffffffffffffffffff1673ffffffffffffffffffffffffffffffffffffffff168152602001908152602001600020819055508173ffffffffffffffffffffffffffffffffffffffff168373ffffffffffffffffffffffffffffffffffffffff167f8c5be1e5ebec7d5bd14f71427d1e84f3dd0314c0f7b2291e5b200ac8c7c3b925836040516108a99190610ed6565b60405180910390a3505050565b60006108c284846105db565b90507fffffffffffffffffffffffffffffffffffffffffffffffffffffffffffffffff811461093c578181101561092e576040517f08c379a000000000000000000000000000000000000000000000000000000000815260040161092590611369565b60405180910390fd5b61093b84848484036106ed565b5b50505050565b600073ffffffffffffffffffffffffffffffffffffffff168373ffffffffffffffffffffffffffffffffffffffff16036109b1576040517f08c379a00000000000000000000000000000000000000000000000000000000081526004016109a8906113fb565b60405180910390fd5b600073ffffffffffffffffffffffffffffffffffffffff168273ffffffffffffffffffffffffffffffffffffffff1603610a20576040517f08c379a0000000000000000000000000000000000000000000000000000000008152600401610a179061148d565b60405180910390fd5b610a2b838383610cfc565b60008060008573ffffffffffffffffffffffffffffffffffffffff1673ffffffffffffffffffffffffffffffffffffffff16815260200190815260200160002054905081811015610ab1576040517f08c379a0000000000000000000000000000000000000000000000000000000008152600401610aa89061151f565b60405180910390fd5b8181036000808673ffffffffffffffffffffffffffffffffffffffff1673ffffffffffffffffffffffffffffffffffffffff16815260200190815260200160002081905550816000808573ffffffffffffffffffffffffffffffffffffffff1673ffffffffffffffffffffffffffffffffffffffff168152602001908152602001600020600082825401925050819055508273ffffffffffffffffffffffffffffffffffffffff168473ffffffffffffffffffffffffffffffffffffffff167fddf252ad1be2c89b69c2b068fc378daa952ba7f163c4a11628f55a4df523b3ef84604051610b9f9190610ed6565b60405180910390a3610bb2848484610d01565b50505050565b610bc06106e5565b73ffffffffffffffffffffffffffffffffffffffff16610bde610485565b73ffffffffffffffffffffffffffffffffffffffff1614610c34576040517f08c379a0000000000000000000000000000000000000000000000000000000008152600401610c2b9061158b565b60405180910390fd5b565b6000600560009054906101000a900473ffffffffffffffffffffffffffffffffffffffff16905081600560006101000a81548173ffffffffffffffffffffffffffffffffffffffff021916908373ffffffffffffffffffffffffffffffffffffffff1602179055508173ffffffffffffffffffffffffffffffffffffffff168173ffffffffffffffffffffffffffffffffffffffff167f8be0079c531659141344cd1fd0a4f28419497f9722a3daafe3b4186f6b6457e060405160405180910390a35050565b505050565b505050565b600081519050919050565b600082825260208201905092915050565b60005b83811015610d40578082015181840152602081019050610d25565b60008484015250505050565b6000601f19601f8301169050919050565b6000610d6882610d06565b610d728185610d11565b9350610d82818560208601610d22565b610d8b81610d4c565b840191505092915050565b60006020820190508181036000830152610db08184610d5d565b905092915050565b600080fd5b600073ffffffffffffffffffffffffffffffffffffffff82169050919050565b6000610de882610dbd565b9050919050565b610df881610ddd565b8114610e0357600080fd5b50565b600081359050610e1581610def565b92915050565b6000819050919050565b610e2e81610e1b565b8114610e3957600080fd5b50565b600081359050610e4b81610e25565b92915050565b60008060408385031215610e6857610e67610db8565b5b6000610e7685828601610e06565b9250506020610e8785828601610e3c565b9150509250929050565b60008115159050919050565b610ea681610e91565b82525050565b6000602082019050610ec16000830184610e9d565b92915050565b610ed081610e1b565b82525050565b6000602082019050610eeb6000830184610ec7565b92915050565b600080600060608486031215610f0a57610f09610db8565b5b6000610f1886828701610e06565b9350506020610f2986828701610e06565b9250506040610f3a86828701610e3c565b9150509250925092565b600060ff82169050919050565b610f5a81610f44565b82525050565b6000602082019050610f756000830184610f51565b92915050565b600060208284031215610f9157610f90610db8565b5b6000610f9f84828501610e06565b91505092915050565b610fb181610ddd565b82525050565b6000602082019050610fcc6000830184610fa8565b92915050565b60008060408385031215610fe957610fe8610db8565b5b6000610ff785828601610e06565b925050602061100885828601610e06565b9150509250929050565b7f4e487b7100000000000000000000000000000000000000000000000000000000600052602260045260246000fd5b6000600282049050600182168061105957607f821691505b60208210810361106c5761106b611012565b5b50919050565b7f4e487b7100000000000000000000000000000000000000000000000000000000600052601160045260246000fd5b60006110ac82610e1b565b91506110b783610e1b565b92508282019050808211156110cf576110ce611072565b5b92915050565b7f45524332303a2064656372656173656420616c6c6f77616e63652062656c6f7760008201527f207a65726f000000000000000000000000000000000000000000000000000000602082015250565b6000611131602583610d11565b915061113c826110d5565b604082019050919050565b6000602082019050818103600083015261116081611124565b9050919050565b7f4f776e61626c653a206e6577206f776e657220697320746865207a65726f206160008201527f6464726573730000000000000000000000000000000000000000000000000000602082015250565b60006111c3602683610d11565b91506111ce82611167565b604082019050919050565b600060208201905081810360008301526111f2816111b6565b9050919050565b7f45524332303a20617070726f76652066726f6d20746865207a65726f2061646460008201527f7265737300000000000000000000000000000000000000000000000000000000602082015250565b6000611255602483610d11565b9150611260826111f9565b604082019050919050565b6000602082019050818103600083015261128481611248565b9050919050565b7f45524332303a20617070726f766520746f20746865207a65726f20616464726560008201527f7373000000000000000000000000000000000000000000000000000000000000602082015250565b60006112e7602283610d11565b91506112f28261128b565b604082019050919050565b60006020820190508181036000830152611316816112da565b9050919050565b7f45524332303a20696e73756666696369656e7420616c6c6f77616e6365000000600082015250565b6000611353601d83610d11565b915061135e8261131d565b602082019050919050565b6000602082019050818103600083015261138281611346565b9050919050565b7f45524332303a207472616e736665722066726f6d20746865207a65726f20616460008201527f6472657373000000000000000000000000000000000000000000000000000000602082015250565b60006113e5602583610d11565b91506113f082611389565b604082019050919050565b60006020820190508181036000830152611414816113d8565b9050919050565b7f45524332303a207472616e7366657220746f20746865207a65726f206164647260008201527f6573730000000000000000000000000000000000000000000000000000000000602082015250565b6000611477602383610d11565b91506114828261141b565b604082019050919050565b600060208201905081810360008301526114a68161146a565b9050919050565b7f45524332303a207472616e7366657220616d6f756e742065786365656473206260008201527f616c616e63650000000000000000000000000000000000000000000000000000602082015250565b6000611509602683610d11565b9150611514826114ad565b604082019050919050565b60006020820190508181036000830152611538816114fc565b9050919050565b7f4f776e61626c653a2063616c6c6572206973206e6f7420746865206f776e6572600082015250565b6000611575602083610d11565b91506115808261153f565b602082019050919050565b600060208201905081810360008301526115a481611568565b905091905056fea2646970667358221220fd23eff2086d9de96152ab1820c3ea8d4599d8c4e65d4821ead0d76017537d2d64736f6c63430008130033",
  "devdoc": {
    "kind": "dev",
    "methods": {},
    "version": 1
  },
  "userdoc": {
    "kind": "user",
    "methods": {},
    "version": 1
  },
  "storageLayout": {
    "storage": [
      {
        "astId": 992,
        "contract": "contracts/ServiceProvider.sol:ServiceProvider",
        "label": "reviews",
        "offset": 0,
        "slot": "0",
        "type": "t_array(t_bytes32)dyn_storage"
      },
      {
        "astId": 994,
        "contract": "contracts/ServiceProvider.sol:ServiceProvider",
        "label": "owner",
        "offset": 0,
        "slot": "1",
        "type": "t_address"
      },
      {
        "astId": 996,
        "contract": "contracts/ServiceProvider.sol:ServiceProvider",
        "label": "factory",
        "offset": 0,
        "slot": "2",
        "type": "t_address"
      },
      {
        "astId": 999,
        "contract": "contracts/ServiceProvider.sol:ServiceProvider",
        "label": "tokenSP",
        "offset": 0,
        "slot": "3",
        "type": "t_contract(TokenSP)1181"
      },
      {
        "astId": 1004,
        "contract": "contracts/ServiceProvider.sol:ServiceProvider",
        "label": "rating",
        "offset": 0,
        "slot": "4",
        "type": "t_uint256"
      },
      {
        "astId": 1008,
        "contract": "contracts/ServiceProvider.sol:ServiceProvider",
        "label": "reviewTokens",
        "offset": 0,
        "slot": "5",
        "type": "t_mapping(t_bytes32,t_bool)"
      }
    ],
    "types": {
      "t_address": {
        "encoding": "inplace",
        "label": "address",
        "numberOfBytes": "20"
      },
      "t_array(t_bytes32)dyn_storage": {
        "base": "t_bytes32",
        "encoding": "dynamic_array",
        "label": "bytes32[]",
        "numberOfBytes": "32"
      },
      "t_bool": {
        "encoding": "inplace",
        "label": "bool",
        "numberOfBytes": "1"
      },
      "t_bytes32": {
        "encoding": "inplace",
        "label": "bytes32",
        "numberOfBytes": "32"
      },
      "t_contract(TokenSP)1181": {
        "encoding": "inplace",
        "label": "contract TokenSP",
        "numberOfBytes": "20"
      },
      "t_mapping(t_bytes32,t_bool)": {
        "encoding": "mapping",
        "key": "t_bytes32",
        "label": "mapping(bytes32 => bool)",
        "numberOfBytes": "32",
        "value": "t_bool"
      },
      "t_uint256": {
        "encoding": "inplace",
        "label": "uint256",
        "numberOfBytes": "32"
      }
    }
  }
}